:10000000A6C00000C0C00000BEC00000BCC0000010
:10001000BAC00000B8C00000B6C00000B4C0000004
:10002000B2C00000B0C00000AEC00000ACC0000014
:10003000AAC00000A8C00000A6C00000A4C0000024
:10004000A2C00000A0C000009EC000009CC0000034
:100050009AC0000000407A10F35A00A0724E1809AE
:100060000010A5D4E80000E87648170000E40B541F
:10007000020000CA9A3B000000E1F50500008096EE
:100080009800000040420F000000A0860100000020
:10009000102700000000E8030000000064000000DA
:1000A00000000A00000000000100000000002C76A3
:1000B000D888DC674F0823DFC1DFAE59E1B1B796BE
:1000C000E5E3E453C63AE651997696E8E6C284261B
:1000D000EB898C9B62ED407C6FFCEFBC9C9F40F2F7
:1000E000BAA56FA5F490055A2AF75C936B6CF96773
:1000F0006DC11BFCE0E40D47FEF520E6B500D0ED38
:10010000902E0300943577050080841E080000209F
:100110004E0A000000C80C333333330F986E12833D
:100120001141EF8D2114893BE65516CFFEE6DB1811
:10013000D1844B381BF77C1D901DA4BBE4242032D6
:1001400084725E228100C9F124ECA1E53D271124CF
:100150001FBECFE5D8E0DEBFCDBF10E0A0E6B0E027
:10016000E0EDF2E102C005900D92AA36B107D9F791
:1001700020E0AAE6B0E001C01D92A03BB207E1F783
:1001800085D10C9466093CCF80FF02C0C29A01C0A1
:10019000C29881FF02C0C39A01C0C39882FF02C007
:1001A000C49A01C0C49883FF02C0C59A0895C59837
:1001B0000895CF93C82FC19A82958F70E5DFC198BB
:1001C000C19A8C2FE1DFC19885E88A95F1F700008C
:1001D000CF910895C098EDCFC09AEBCFCF93DF9326
:1001E000EC018991882311F0F7DFFBCFDF91CF91EC
:1001F000089590E4699F800D11248068EBCF81E021
:10020000E9DF8FE99FE00197F1F700C00000089552
:1002100082E0E0DF8FE99FE00197F1F700C0000086
:100220000895CF93BA9ABB9ABC9ABD9AB99AB89AD4
:100230008FE295E70197F1F700C00000C098C198E0
:10024000C3E0C19A83E0A0DFC1988FE097E20197F5
:10025000F1F700C00000C150A1F7C19A82E094DF1D
:10026000C1988FEC97E00197F1F700C0000088E299
:10027000B1DF88E0AFDF81E0ADDF8FE99FE001977C
:10028000F1F700C0000086E0A5DF8CE0CF91A2CF9F
:10029000CF92DF92EF92FF920F931F93CF93DF9352
:1002A000CDB7DEB72F970FB6F894DEBF0FBECDBF28
:1002B0006091790070917A0080E090E0E2D120E0D6
:1002C00030E048EC52E444D19E012F5F3F4F79016A
:1002D000890122E041E0C6D280917D001F928F9378
:1002E000FF92EF9280E6C82E80E0D82EDF92CF9268
:1002F0008AE690E09F938F93D5D260917B007091B6
:100300007C0080E090E0BDD120E030E048EC52E499
:100310001FD122E041E0A6D280917E001F928F93F0
:10032000FF92EF92DF92CF928EE890E09F938F93AF
:10033000B9D2EAE6F0E04FE750E02EE830E00DE910
:1003400010E00FB6F894DEBF0FBECDBF80E090E0A6
:10035000892B89F49081DA018C9198130CC071E09B
:1003600060E0D9019C91D8018C91981301C070E094
:10037000872F962F02C081E090E06191DA016D93A2
:10038000AD01D9016D919D01D8016D938D01B0E052
:10039000E937FB07E9F6892B69F031DF60E080E09F
:1003A00028DF8FE790E01ADF61E080E022DF8DE94F
:1003B00090E014DF2F960FB6F894DEBF0FBECDBFCE
:1003C000DF91CF911F910F91FF90EF90DF90CF9031
:1003D00008953E9A309A379A0895BC0180E090E0E3
:1003E00050D120E030E040EA50E4D9D120E030E8BC
:1003F0004FE754E4ADD020E030E048EC52E4CFD1F8
:100400000FD1CB010895BC0180E090E03AD120E00B
:1004100030E84FE754E49CD020E030E048EC52E470
:10042000BED103D1862F0895369A369BFECF84B174
:1004300095B108956817790710F4909A0895861772
:10044000970708F49098089550E09A01260F371FF7
:100450002817390710F4919A0895641B750B8617B5
:10046000970708F4919808959B012C593F4F28173E
:10047000390710F4929A08C0645671099298861749
:10048000970710F4939A0895939808958FE084BB8A
:10049000C8DEBEDE9EDFC1E0D0E07E0123E0E222C6
:1004A000FF24E114F10409F4F3DE3898BDDF9093E2
:1004B000AD008093AC008FEC97E00197F1F700C09E
:1004C0000000389AB1DF8C019093AF008093AE00AA
:1004D000A090AC00B090AD00C5017FDF6C0190939F
:1004E0007A0080937900C5018EDF80937D00C8017A
:1004F00074DF5C0190937C0080937B00C80183DFF4
:1005000080937E00B501C60195DF60917B007091FC
:100510007C0042E38091790090917A0095DF6091B0
:100520007B0070917C008091790090917A009CDF33
:100530009FE728E381E0915020408040E1F700C030
:100540000000EF2819F4C0E0D0E0A7CF2196A5CF96
:100550000CD0EBC0E3D040F0DAD030F021F45F3FB4
:1005600019F0CCC0511115C1CFC0F0D098F3992328
:10057000C9F35523B1F3951B550BBB27AA27621767
:100580007307840738F09F5F5F4F220F331F441FAC
:10059000AA1FA9F333D00E2E3AF0E0E830D09150E4
:1005A0005040E695001CCAF729D0FE2F27D0660FD1
:1005B000771F881FBB1F261737074807AB07B0E810
:1005C00009F0BB0B802DBF01FF2793585F4F2AF026
:1005D0009E3F510568F092C0DCC05F3FECF3983E4F
:1005E000DCF3869577956795B795F7959F5FC9F783
:1005F000880F911D9695879597F90895E1E0660F0C
:10060000771F881FBB1F621773078407BA0720F084
:10061000621B730B840BBA0BEE1F88F7E0950895ED
:1006200004D06894B111B5C0089598D088F09F5750
:1006300090F0B92F9927B751A0F0D1F0660F771F2E
:10064000881F991F1AF0BA95C9F712C0B13081F00E
:100650009FD0B1E008959CC0672F782F8827B85F9E
:1006600039F0B93FCCF3869577956795B395D9F76F
:100670003EF490958095709561957F4F8F4F9F4F79
:100680000895E89409C097FB3EF490958095709585
:1006900061957F4F8F4F9F4F9923A9F0F92F96E9CE
:1006A000BB279395F695879577956795B795F11143
:1006B000F8CFFAF4BB0F11F460FF1BC06F5F7F4FE0
:1006C0008F4F9F4F16C0882311F096E911C07723F2
:1006D00021F09EE8872F762F05C0662371F096E8FB
:1006E000862F70E060E02AF09A95660F771F881FCA
:1006F000DAF7880F9695879597F9089597F99F6788
:1007000080E870E060E008959FEF80EC0895002499
:100710000A941616170618060906089500240A9466
:1007200012161306140605060895092E0394000CEC
:1007300011F4882352F0BB0F40F4BF2B11F460FF7B
:1007400004C06F5F7F4F8F4F9F4F089557FD9058A4
:10075000440F551F59F05F3F71F04795880F97FB85
:10076000991F61F09F3F79F087950895121613063F
:100770001406551FF2CF4695F1DF08C0161617066E
:100780001806991FF1CF86957105610508940895A3
:10079000E894BB2766277727CB0197F908950BD0FC
:1007A000C4CFB5DF28F0BADF18F0952309F0A6CF43
:1007B000ABCF1124EECFCADFA0F3959FD1F3950FF5
:1007C00050E0551F629FF001729FBB27F00DB11DD5
:1007D000639FAA27F00DB11DAA1F649F6627B00D65
:1007E000A11D661F829F2227B00DA11D621F739F4E
:1007F000B00DA11D621F839FA00D611D221F749F5C
:100800003327A00D611D231F849F600D211D822FA2
:10081000762F6A2F11249F5750408AF0E1F08823E9
:100820004AF0EE0FFF1FBB1F661F771F881F9150F6
:100830005040A9F79E3F510570F060CFAACF5F3FAF
:10084000ECF3983EDCF3869577956795B795F79529
:10085000E7959F5FC1F7FE2B880F911D96958795B1
:1008600097F90895EF920F931F93CF93DF93E801C9
:1008700047FF02C034E101C034E0E42FFF27E7FD69
:10088000F095F7FF03C0F195E195F109E32E022FF2
:100890002E2FAE01E9D1CE01DF91CF911F910F91A3
:1008A000EF900895AEE0B0E0E7E5F4E0E6C40D892E
:1008B0001E8986E08C831A8309838FEF9FE79E83CE
:1008C0008D83AE01475E5F4F6F89788DCE010196B3
:1008D00008D0EF81F885E00FF11F10822E96E4E03A
:1008E000E8C4ACE0B0E0E6E7F4E0B9C47C016B0139
:1008F0008A01FC0117821682838181FFB0C1CE017B
:1009000001964C01F7019381F60193FD859193FFC8
:1009100081916F01882309F49EC1853239F493FDDA
:10092000859193FF81916F01853221F4B70190E0A9
:1009300006D4E8CF512C312C20E02032A0F48B32A9
:1009400069F030F4803259F0833269F420612CC0B0
:100950008D3239F0803339F4216026C02260246062
:1009600023C0286021C027FD27C030ED380F3A3062
:1009700078F426FF06C0FAE05F9E300D1124532E56
:1009800013C08AE0389E300D1124332E20620CC033
:100990008E3221F426FD5FC1206406C08C3611F42E
:1009A000206802C0883641F4F60193FD859193FFDB
:1009B00081916F018111C1CF982F9F7D9554933004
:1009C00028F40C5F1F4FFFE3F9830DC0833631F02D
:1009D000833771F0833509F057C021C0F801808159
:1009E00089830E5F1F4F44244394512C540114C03B
:1009F0003801F2E06F0E711CF801A080B18026FF73
:100A000003C0652D70E002C06FEF7FEFC5012C873A
:100A10008BD32C0183012C852F77222E16C0380111
:100A2000F2E06F0E711CF801A080B18026FF03C0B8
:100A3000652D70E002C06FEF7FEFC5012C8769D391
:100A40002C012C852068222E830123FC19C0832DC4
:100A500090E048165906A0F4B70180E290E06FD309
:100A60003A94F5CFF50127FC859127FE81915F012E
:100A7000B70190E064D331103A94F1E04F1A510875
:100A80004114510479F7DEC0843611F0893631F50E
:100A9000F80127FF07C060817181828193810C5F1B
:100AA0001F4F08C060817181882777FD8095982F3E
:100AB0000E5F1F4F2F76B22E97FF09C0909580953D
:100AC000709561957F4F8F4F9F4F2068B22E2AE01F
:100AD00030E0A40166D3A82EA81843C0853729F4B6
:100AE0002F7EB22E2AE030E025C0F22FF97FBF2EF4
:100AF0008F36C1F018F4883579F0ADC0803719F021
:100B0000883721F0A8C02F2F2061B22EB4FE0DC06F
:100B10008B2D8460B82E09C024FF0AC09F2F9660D9
:100B2000B92E06C028E030E005C020E130E002C068
:100B300020E132E0F801B7FE07C060817181828157
:100B400093810C5F1F4F06C06081718180E090E04F
:100B50000E5F1F4FA40125D3A82EA818FB2DFF77E9
:100B6000BF2EB6FE0BC02B2D2E7FA51450F4B4FE65
:100B70000AC0B2FC08C02B2D2E7E05C07A2C2B2D6E
:100B800003C07A2C01C0752C24FF0DC0FE01EA0DB4
:100B9000F11D8081803311F4297E09C022FF06C037
:100BA0007394739404C0822F867809F0739423FDA4
:100BB00012C020FF06C05A2C731418F4530C571897
:100BC000732C731460F4B70180E290E02C87B7D2E5
:100BD00073942C85F6CF731410F4371801C0312CA0
:100BE00024FF11C0B70180E390E02C87A8D22C85A8
:100BF00022FF16C021FF03C088E590E002C088E70D
:100C000090E0B7010CC0822F867851F021FD02C020
:100C100080E201C08BE227FD8DE2B70190E08FD228
:100C2000A51430F4B70180E390E089D25A94F8CF4C
:100C3000AA94F401EA0DF11D8081B70190E07FD202
:100C4000A110F6CF332009F45DCEB70180E290E029
:100C500076D23A94F7CFF7018681978102C08FEF61
:100C60009FEF2C96E2E117C36F927F929F92AF9213
:100C7000BF92CF92DF92EF92FF920F931F93CF9389
:100C8000DF93CDB7DEB729970FB6F894DEBF0FBE5E
:100C9000CDBF6A01B22E102F0C3320F4FF24F39441
:100CA000F00E02C04CE3F42E0F2D27E0AE014F5F93
:100CB0005F4F57D17981272F2970213031F0E1FC26
:100CC00006C0E0FC06C060E005C06DE203C06BE258
:100CD00001C060E2AE2DA07173FF36C0662311F033
:100CE00084E001C083E08B1510F4B81A01C0B12C68
:100CF000A1110BC0F6018B2D90E2882319F091937E
:100D00008150FBCFCB0CD11CB12C662331F0F60106
:100D1000608396012F5F3F4F6901C6010396E2FE93
:100D200005C02EE4F601208331E404C02EE6F6016E
:100D3000208331E631832283FC012B2D30E22223F4
:100D4000F1F131932150FBCF72FF40C0662311F0C7
:100D500084E001C083E08B1510F4B81A01C0B12CF7
:100D6000A1110BC0F6018B2D90E2882319F091930D
:100D70008150FBCFCB0CD11CB12C662331F0F60196
:100D8000608396012F5F3F4F6901C6010396E2FE23
:100D900007C029E4F60120832EE4218326E406C05F
:100DA00029E6F60120832EE6218326E62283FC0134
:100DB0002B2D30E2222319F031932150FBCFFC017F
:100DC000EB0DF11D10828EEF9FEFB7C0B1E0611106
:100DD00001C0B0E04B2F50E01816190624F49C0116
:100DE0002F5F3F4F02C021E030E0240F351F112359
:100DF00029F0412F50E04F5F5F4F02C040E050E0CC
:100E0000420F531F2B2D30E04217530714F4B41A2E
:100E100001C0B12C2E2D287159F4F6012B2D30E292
:100E2000222319F031932150FBCFCB0CD11CB12CD4
:100E3000BB2331F0F601608396012F5F3F4F6901BC
:100E4000A1110BC0F6012B2D30E3222319F03193B1
:100E50002150FBCFCB0CD11CB12CF80E0A81372FBF
:100E60003071A32E74FF03C0013309F4FA941F14E8
:100E70002CF42F2D293018F028E001C021E0682F34
:100E8000392F97FF02C060E030E0462F532F612CCE
:100E9000712C3EE2932EBC01621B71099B01DC01A7
:100EA000A41BB50BE1E0F0E0EC0FFD1FAE0FBF1F80
:100EB000E12EF12CF194E194F1084F3FFFEF5F0731
:100EC00031F4F6019082B6016F5F7F4F6B0184179A
:100ED00095074CF02417350734F4BD01660D771DD6
:100EE000FB01118101C010E341505109FFEF6F1A5E
:100EF0007F0AB6016F5F7F4F4E155F0524F0F60144
:100F000010836B01DACF4817590739F4063320F400
:100F1000053319F4A11001C011E3F6011083FB01A0
:100F20008B2D90E2882319F091938150FBCFFB0128
:100F3000EB0DF11D108280E090E029960FB6F89439
:100F4000DEBF0FBECDBFDF91CF911F910F91FF90FC
:100F5000EF90DF90CF90BF90AF909F907F906F9079
:100F60000895283008F027E03327DA01990F311D62
:100F700087FD916000966105710539F432602E5F3E
:100F80003D9330E32A95E1F708959F3F30F0803894
:100F90007105610509F03C5F3C5F3D93913008F0BD
:100FA0008068911DDF93CF931F930F93FF92EF9271
:100FB000192F987F9695E92F96959695E90FFF271B
:100FC000E255FF4F99273327EE24FF24A701E701BD
:100FD00005900894079428F4360FE71EF81E491F61
:100FE000511D660F771F881F991F0694A1F7059062
:100FF000079428F4E70EF81E491F561FC11D770FEE
:10100000881F991F661F0694A1F70590079428F47E
:10101000F80E491F561FC71FD11D880F991F661F45
:10102000771F0694A1F70590079420F4490F561FE7
:10103000C71FD81F990F661F771F881F0694A9F72F
:1010400084911095177041F0D695C795579547959F
:10105000F794E7941A95C1F7E4E5F0E068941590E9
:10106000159135916591959105907FE27395E11801
:10107000F10A430B560BC90BD009C0F7E10CF11E66
:10108000431F561FC91FD01D7EF4703311F48A957B
:10109000E6CFE894015030F0080F0AF40027021759
:1010A00008F4202F2395022F7A3328F079E37D93DB
:1010B0002A95E9F710C07D932A9589F606949795AD
:1010C0006795379517951794E118F10A430B560B5E
:1010D000C90BD00998F023957E9173957A3308F067
:1010E00070E37C932013B8F77E9170617D9330F0AC
:1010F000839571E37D9370E32A95E1F71124EF90D6
:10110000FF900F911F91CF91DF91992787FD9095C7
:101110000895FC010590615070400110D8F780954A
:1011200090958E0F9F1F0895FC01615070400190B3
:101130000110D8F7809590958E0F9F1F08950F93FB
:101140001F93CF93DF93182F092FEB018B8181FD24
:1011500003C08FEF9FEF20C082FF10C04E815F81E0
:101160002C813D81421753077CF4E881F9819F016E
:101170002F5F3F4F39832883108306C0E885F985A8
:10118000812F0995892B29F72E813F812F5F3F4FB2
:101190003F832E83812F902FDF91CF911F910F914D
:1011A0000895FA01AA27283051F1203181F1E894FD
:1011B0006F936E7F6E5F7F4F8F4F9F4FAF4FB1E04A
:1011C0003ED0B4E03CD0670F781F891F9A1FA11D45
:1011D000680F791F8A1F911DA11D6A0F711D811D46
:1011E000911DA11D20D009F468943F912AE0269F0B
:1011F00011243019305D3193DEF6CF010895462F6A
:101200004770405D4193B3E00FD0C9F7F6CF462F4A
:101210004F70405D4A3318F0495D31FD40524193B3
:1012200002D0A9F7EACFB4E0A69597958795779570
:101230006795BA95C9F700976105710508959B01F7
:10124000AC010A2E06945795479537952795BA9580
:10125000C9F7620F731F841F951FA01D08952F9259
:101260003F924F925F926F927F928F929F92AF9236
:10127000BF92CF92DF92EF92FF920F931F93CF9383
:10128000DF93CDB7DEB7CA1BDB0B0FB6F894DEBF1A
:101290000FBECDBF09942A88398848885F846E8440
:1012A0007D848C849B84AA84B984C884DF80EE808A
:1012B000FD800C811B81AA81B981CE0FD11D0FB693
:1012C000F894DEBF0FBECDBFED010895F894FFCFB7
:0A12D0002573202D2025642525003C
:00000001FF
