:1000000029C0000043C0000041C000003FC0000004
:100010003DC000003BC0000039C0000067C70000C1
:1000200035C0000033C0000031C000002FC0000008
:100030002DC000002BC0000029C0000027C0000018
:1000400025C0000023C0000021C000001FC0000028
:100050001DC0000011241FBECFE5D8E0DEBFCDBF1C
:1000600011E0A0E6B0E0E4E2F5E102C005900D92F7
:10007000AE30B107D9F721E0AEE0B1E001C01D928A
:10008000A231B207E1F71AD70C94900AB9CFA0E2D7
:10009000B0E0ECE4F0E083C76D8F7E8F8F8F98A384
:1000A000298F3A8F4B8F5C8FBE016F5E7F4FCE01E1
:1000B0004D96F3D2BE01675F7F4FCE014996EDD2D8
:1000C0009989923008F412C08985823008F41AC0E8
:1000D000943021F4823009F4B4C008C0843021F493
:1000E000923009F4AEC00EC0923051F481E02A89FA
:1000F0009A85291301C080E08A8BCE014196A3C066
:10010000823051F481E02A899A85291301C080E068
:100110008A87CE01099697C08D889E88AF88B88C53
:100120000D851E852F853889E0E2F0E080E090E0C3
:10013000DC01C12CD12C760140E050E0BA0180FEF8
:1001400018C0400F511F621F731F8C0D9D1DAE1DE7
:10015000BF1D412C512C32014394401751076207B7
:10016000730718F0412C512C3201840D951DA61DEA
:10017000B71DCC0CDD1CEE1CFF1C37FF02C06894C1
:10018000C0F8000F111F221F331FB694A794979435
:1001900087943197A1F62B893C89EB85FC852E0F3E
:1001A0003F1F2E5F3F4F3C832B8321E0EA893A8536
:1001B000E31301C020E02A83EB81FC810CC080FFA7
:1001C00005C076956795579547957068B695A7953C
:1001D000979587953196B7FDF2CF9F010CC0880F98
:1001E000991FAA1FBB1F77FD8160440F551F661F13
:1001F000771F215031090097A105E0E4BE0778F38D
:100200002B833C838C019D010F77112722273327F5
:10021000003411052105310559F487FD09C0452B2E
:10022000462B472B29F0805C9F4FAF4FBF4F807804
:100230008D839E83AF83B88783E08983CE01019647
:1002400002C08BE690E05FD1A096E0E1C4C6A8E1D1
:10025000B0E0ECE2F1E0ABC66D8B7E8B8F8B988FBC
:10026000298B3A8B4B8B5C8BBE01675F7F4FCE0136
:10027000459613D2BE016F5F7F4FCE0141960DD2DE
:100280009985923008F475C08981823008F474C071
:100290002A853A8123272A87943011F0923019F465
:1002A000981367C06CC0843039F41D861E861F8683
:1002B000188A1C861B8604C0823029F484E0898752
:1002C000CE0109965EC08B859C852B813C81821B6B
:1002D000930B9C878B874D855E856F857889CD8054
:1002E000DE80EF80F8844C155D056E057F0538F4DF
:1002F000440F551F661F771F01979C878B87EFE17F
:10030000F0E000E010E020E030E480E090E0DC018C
:100310004C155D056E057F0540F0802B912BA22BBF
:10032000B32B4C195D096E097F09369527951795F2
:100330000795440F551F661F771F319749F78C01AA
:100340009D010F771127222733270034110521053E
:10035000310559F487FD09C0452B462B472B29F061
:10036000805C9F4FAF4FBF4F80788D879E87AF8750
:10037000B88BCE01099605C0CE01019602C08BE66E
:1003800090E0C1D06896E8E02EC6ACE0B0E0EAECC0
:10039000F1E011C669877A878B879C87BE016F5F02
:1003A0007F4FCE01099679D18981823091F18230D7
:1003B00080F1843041F48A81882331F100E010E03B
:1003C00020E030E829C02B813C8137FD22C02F314D
:1003D00031058CF78EE190E0821B930B0D811E811D
:1003E0002F81388504C036952795179507958A95EE
:1003F000D2F78A81882381F0309520951095019558
:100400001F4F2F4F3F4F08C00FEF1FEF2FEF3FE75A
:1004100003C000E010E09801B801C9012C96E4E0A7
:10042000E6C5A8E0B0E0E6E1F2E0C1C58B019C01C1
:100430001A82611571058105910519F482E089839D
:100440005CC083E089834EE150E05C834B83C9014B
:10045000B8018AD5019797FF39C0EE27FF27E81B1F
:10046000F90B41E050E060E070E00E2E04C0440F54
:10047000551F661F771F0A94D2F741505109610931
:1004800071094023512362237323C12CD12C76019F
:10049000C394452B462B472B19F4C12CD12C760144
:1004A00004C03695279517950795EA95D2F70C293C
:1004B0001D292E293F290D831E832F8338872EE186
:1004C00030E0281B390B3C832B8317C0009729F49D
:1004D0000D831E832F83388710C0082E04C0000FA1
:1004E000111F221F331F0A94D2F70D831E832F83FF
:1004F0003887481B590B5C834B83CE01019603D090
:100500002896E8E070C50F931F93CF93DF93DC012B
:1005100014964D915D916D917C9117971196EC9188
:1005200011978C91823020F460618FEF90E0A6C02B
:10053000843009F49EC0823009F495C041155105FC
:100540006105710509F492C012962D913C911397A3
:1005500022388FEF38070CF058C0C2E8DFEFC21B1B
:10056000D30BCA31D1056CF58A019B010C2E04C056
:1005700036952795179507950A94D2F781E090E074
:10058000A0E0B0E00C2E04C0880F991FAA1FBB1F6B
:100590000A94D2F70197A109B10984239523A623D0
:1005A000B72341E050E060E070E0892B8A2B8B2B71
:1005B00019F440E050E0BA01402B512B622B732B11
:1005C00003C040E050E0BA01DB01CA018F779927F0
:1005D000AA27BB2780349105A105B10539F447FF4F
:1005E00009C0405C5F4F6F4F7F4F04C0415C5F4F5D
:1005F0006F4F7F4F81E090E041155105610520E488
:10060000720748F580E090E026C0203831058CF56F
:10061000DB01CA018F779927AA27BB278034910570
:10062000A105B10539F447FF09C0405C5F4F6F4F2A
:100630007F4F04C0415C5F4F6F4F7F4F77FD04C019
:10064000C90181589F4F07C0769567955795479583
:10065000C90180589F4F97E07695679557954795C4
:100660009A95D1F70BC080E090E005C080E090E063
:1006700005C08FEF90E040E050E0BA01982F9695CA
:10068000E0FB97F9362F80FB37F9642F752F832F06
:10069000DF91CF911F910F910895CF92DF92EF924A
:1006A000DC01FB01CC901196DC90119712968C9195
:1006B00012973FE7E32EE8226E2DA60170E0982FF7
:1006C000991F9927991F13962C91822F880F892B98
:1006D00090E027FB222720F92183009729F5411577
:1006E00051056105710511F482E027C082E89FEF92
:1006F0009383828327E0440F551F661F771F2A9537
:10070000D1F783E0808309C0440F551F661F771F10
:1007100082819381019793838283411551056105FD
:1007200080E4780788F320C08F3F910579F4411564
:1007300051056105710519F484E0808319C0E4FE58
:1007400003C081E0808310C010820EC08F579109D2
:100750009383828383E0808387E0440F551F661F65
:10076000771F8A95D1F770644483558366837783B6
:10077000EF90DF90CF90089580FF02C0C29A01C031
:10078000C29881FF02C0C39A01C0C39882FF02C011
:10079000C49A01C0C49883FF02C0C59A0895C59841
:1007A0000895CF93C82FC19A82958F70E5DFC198C5
:1007B000C19A8C2FE1DFC19885E88A95F1F7000096
:1007C000CF910895C098EDCFC09AEBCFCF93DF9330
:1007D000EC0101C0F9DF89918111FCCFDF91CF914C
:1007E000089590E4699F800D11248068EBCF81E02B
:1007F000E9DF8FE99FE00197F1F700C0000008955D
:1008000082E0E0DF8FE99FE00197F1F700C0000090
:100810000895CF93BA9ABB9ABC9ABD9AB99AB89ADE
:100820008FE295E70197F1F700C00000C098C198EA
:10083000C3E0C19A83E0A0DFC1988FE097E20197FF
:10084000F1F700C00000C150A1F7C19A82E094DF27
:10085000C1988FEC97E00197F1F700C0000088E2A3
:10086000B1DF88E0AFDF81E0ADDF8FE99FE0019786
:10087000F1F700C0000086E0A5DF8CE0CF91A2CFA9
:1008800080E090E041E050E064B39A01082E01C09E
:10089000220F0A94EAF7622B64BB01968730910518
:1008A00099F708958A3008F08AE0E82FF0E0E05ADE
:1008B000FF4F808185BB08958EB588608EBD8EB553
:1008C00081608EBD8EB584608EBD8DE093E09BBD52
:1008D0008ABD08953E9A309A379A0895BC0180E007
:1008E00090E09FDD20E030E040EA50E4D0DB20E003
:1008F00030EC4FE754E4ABDC20E030E048EC52E46D
:10090000C6DB43DDCB010895369A369BFECF24B17A
:1009100035B1C90108956BDF60E080E062DF83E7F5
:1009200090E054DF61E080E05CDF84E890E04EDF3F
:1009300080E590E0CC9B0BC02FE738E341E02150ED
:1009400030404040E1F700C00000019799F708955A
:10095000CF92DF92EF92FF920F931F93CF93DF938B
:10096000CDB7DEB764970FB6F894DEBF0FBECDBF2C
:1009700000E010E083E9C82E80E0D82EEE24E39456
:10098000F12CEC0EFD1EC99B07C00AC08FE19EE44E
:100990000197F1F700C00000C99BF8CF0F5F1F4F10
:1009A000CA9B07C00AC08FE19EE40197F1F700C01F
:1009B0000000CA9BF8CF01501109033311052CF434
:1009C0000F3F9FEF190721F005C000E010E002C0C3
:1009D00002E310E0802F66DF0ADF60E080E001DFE5
:1009E0001F930F93DF92CF92FF92EF920DD3C70127
:1009F000EDDE0F900F900F900F900F900F9000FD75
:100A000009C0929A8FE39CE90197F1F700C00000BA
:100A1000939802C0939A9298C8010297029738F16E
:100A20000530110521F10730110509F10B301105D1
:100A3000F1F00D301105D9F001311105C1F003318C
:100A40001105A9F00731110591F00D31110579F06B
:100A50000F31110561F00532110549F00932110518
:100A600031F00B32110519F00F32110511F4969A7D
:100A700001C09698CC9B0AC09FE728E381E0915083
:100A800020408040E1F700C000007DCF80E090E092
:100A900064960FB6F894DEBF0FBECDBFDF91CF9145
:100AA0001F910F91FF90EF90DF90CF9008959F924C
:100AB000AF92BF92CF92DF92EF92FF920F931F936C
:100AC000CF93DF93CDB7DEB764970FB6F894DEBF50
:100AD0000FBECDBF10920F0110920E012AE0E22E40
:100AE000F12C30EAC32E30E0D32E8E010F5F1F4F62
:100AF00049E0A42EB12C54E0952E79DE60E080E030
:100B000070DE80910E0190910F0120910E013091C5
:100B10000F01B70102D29F938F93C901B701FDD195
:100B20007F936F93DF92CF921F930F936DD2C80183
:100B30004DDE80910E0190910F01B501EED10FB6FF
:100B4000F894DEBF0FBECDBF892B19F482B389257F
:100B500082BBCB9924C089B7806189BF06C08FE36F
:100B60009CE90197F1F700C00000CB9BF8CFCB992F
:100B700010C08FE39CE90197F1F700C0000089B72E
:100B80008F7E89BF06C08FE59AEE0197F1F700C00E
:100B90000000CB99F8CF10920F0110920E01CC9B60
:100BA0000AC09FE728E331E0915020403040E1F750
:100BB00000C00000A2CF80E090E064960FB6F894E9
:100BC000DEBF0FBECDBFDF91CF911F910F91FF9080
:100BD000EF90DF90CF90BF90AF909F9008958F924D
:100BE0009F92AF92BF92CF92DF92EF92FF920F93BC
:100BF0001F93CF93DF93CDB7DEB764970FB6F8940A
:100C0000DEBF0FBECDBF10920F0110920E0105E1A5
:100C100010E06AE0C62ED12C70EB872E70E0972E84
:100C2000EE24E394F12CEC0EFD1E89B7806189BFA0
:100C3000DEDD60E080E0D5DD80910E0190910F0156
:100C4000B6016BD15B016C33710544F00F5F1F4F30
:100C500010920F0110920E01A12CB12C80910E0167
:100C600090910F01B60159D1892B59F4969A8FEFC3
:100C700091EE24E0815090402040E1F700C0000058
:100C8000969880910E0190910F01B60146D17F9305
:100C90006F931F930F939F928F92FF92EF92B4D115
:100CA000C70194DD8A2DFEDD0FB6F894DEBF0FBEBE
:100CB000CDBFCC9B0AC09FE728E381E09150204044
:100CC0008040E1F700C00000B0CF80E090E0649683
:100CD0000FB6F894DEBF0FBECDBFDF91CF911F914D
:100CE0000F91FF90EF90DF90CF90BF90AF909F90CB
:100CF0008F9008956F927F928F929F92AF92BF9242
:100D0000CF92DF92EF92FF920F931F93CF93DF93D7
:100D1000CDB7DEB764970FB6F894DEBF0FBECDBF78
:100D2000D9DDA39AFEEBEF2EF0E0FF2E8E010F5FD0
:100D30001F4FA4E6AA2EB12CB9ECCB2EB0E0DB2ECF
:100D4000E3DD782E692ECADD4C0151DD60E080E0E4
:100D500048DD6F927F92FF92EF921F930F9354D1D1
:100D6000C80134DD61E080E03CDDC401B501D5D0CF
:100D70009F938F937F936F93DF92CF921F930F93E5
:100D800043D1C80123DD0FB6F894DEBF0FBECDBF3F
:100D9000CC9B0AC09FEF24E38CE091502040804020
:100DA000E1F700C00000CCCF80E090E064960FB681
:100DB000F894DEBF0FBECDBFDF91CF911F910F9191
:100DC000FF90EF90DF90CF90BF90AF909F908F906B
:100DD0007F906F900895C99B07C011C08FE19EE47A
:100DE0000197F1F700C00000C99BF8CF8091100176
:100DF0009091110101969093110180931001CA9B6B
:100E000007C011C08FE19EE40197F1F700C0000018
:100E1000CA9BF8CF80911001909111010197909396
:100E2000110180931001809110019091110105979B
:100E300024F01092110110921001809110019091F4
:100E4000110197FF06C084E090E090931101809318
:100E50001001CDDC60E080E0C4DC80911001909155
:100E6000110182309105C1F02CF4009749F00197EF
:100E700021F50CC083309105A9F00497F1F418C056
:100E80008AED90E0A3DCCB9918C045CD88EE90E0C8
:100E90009DDCCB9912C05CCD88EF90E097DCCB99BC
:100EA0000CC005CE8FEF90E091DCCB9906C097CEB9
:100EB00085E091E08BDCCB9B1DCF0895D99ADA9A1F
:100EC000DB9ADC9A8A9A8B9A8E9AA3DC99DCD8DC1E
:100ED000F3DC789420DD7FDF2FEF80E792E0215074
:100EE00080409040E1F700C00000F5CF1F920F92C4
:100EF0000FB60F9211248F939F9380910E019091C2
:100F00000F01019690930F0180930E019F918F9195
:100F10000F900FBE0F901F90189597FB072E16F499
:100F2000009406D077FD08D00BD007FC05D03EF426
:100F3000909581959F4F0895709561957F4F089585
:100F4000AA1BBB1B51E107C0AA1FBB1FA617B707EF
:100F500010F0A61BB70B881F991F5A95A9F780950B
:100F60009095BC01CD01089506D084FF0895CB0172
:100F700002D0805F0895AA27992329F4A85F982BAF
:100F800011F480E10895903118F4AD5F9295A39526
:100F9000990FE8F78A2F992708952F923F924F9241
:100FA0005F926F927F928F929F92AF92BF92CF92F9
:100FB000DF92EF92FF920F931F93CF93DF93CDB702
:100FC000DEB7CA1BDB0B0FB6F894DEBF0FBECDBF7A
:100FD00009942A88398848885F846E847D848C844B
:100FE0009B84AA84B984C884DF80EE80FD800C8154
:100FF0001B81AA81B981CE0FD11D0FB6F894DEBF37
:101000000FBECDBFED010895AEE0B0E0E9E0F8E03D
:10101000D2CF0D891E8986E08C831A8309838FEFD6
:101020009FE79E838D83CE014996AC016F89788DB1
:10103000CE01019608D0EF81F885E00FF11F1082F4
:101040002E96E4E0D4CFACE0B0E0E8E2F8E0A5CF43
:101050007C016B018A01FC0117821682838181FF6A
:10106000B9C188248394912C8C0E9D1EF701938125
:10107000F60193FD859193FF81916F01882309F417
:10108000A5C1853239F493FD859193FF81916F015C
:10109000853221F4B70190E0B9D1E8CF512C312C41
:1010A00020E02032A8F48B3261F028F4803251F035
:1010B000833271F40BC08D3239F0803349F42160F2
:1010C00028C02260246025C0286023C0206121C080
:1010D00027FD27C0382F30533A3078F426FF06C05A
:1010E000FAE05F9E300D1124532E13C08AE0389E23
:1010F000300D1124332E20620CC08E3221F426FDD7
:1011000065C1206406C08C3611F4206802C08836A0
:1011100041F4F60193FD859193FF81916F01811157
:10112000C0CF982F9554933018F09052933028F4F4
:101130000C5F1F4FFFE3F9830DC0833631F0833717
:1011400071F0833509F05AC022C0F801808189838B
:101150000E5F1F4F44244394512C540114C0380196
:10116000F2E06F0E711CF801A080B18026FF03C071
:10117000652D70E002C06FEF7FEFC5012C873BD17A
:101180002C0183012C856FE7262E222217C03801FF
:10119000F2E06F0E711CF801A080B18026FF03C041
:1011A000652D70E002C06FEF7FEFC5012C8718D16D
:1011B0002C012C8550E8252E222A830123FC1AC0FD
:1011C00005C0B70180E290E021D13A94832D90E0F0
:1011D00048165906B0F30EC0F50127FC859127FE8D
:1011E00081915F01B70190E011D131103A94F1E0A3
:1011F0004F1A51084114510479F7E5C0843611F0B3
:10120000893639F5F80127FF07C060817181828135
:1012100093810C5F1F4F08C060817181882777FD23
:101220008095982F0E5F1F4F4FE6B42EB22297FF86
:1012300009C090958095709561957F4F8F4F9F4F16
:10124000F0E8BF2A2AE030E0A4010CD1A82EA818AB
:1012500042C0853731F43FEEB32EB2222AE030E0AF
:1012600024C099EFB92EB2228F36B9F020F4883518
:1012700009F0ACC00DC0803721F0883709F0A6C056
:1012800002C020E1B22AB4FE0BC084E0B82A08C034
:1012900024FF09C0E6E0BE2A06C028E030E005C011
:1012A00020E130E002C020E132E0F801B7FE07C0E3
:1012B00060817181828193810C5F1F4F06C06081C4
:1012C000718180E090E00E5F1F4FA401CBD0A82E6B
:1012D000A818FFE7BF22B6FE0BC02B2D2E7FA5144A
:1012E00050F4B4FE0AC0B2FC08C02B2D2E7E05C0FF
:1012F0007A2C2B2D03C07A2C01C0752C24FF0DC035
:10130000FE01EA0DF11D8081803311F4297E09C0B0
:1013100022FF06C07394739404C0822F867809F06C
:10132000739423FD13C020FF0EC05A2C731458F47D
:10133000530C5718732C07C0B70180E290E02C873C
:1013400065D073942C857314B8F304C0731410F42F
:10135000371801C0312C24FF11C0B70180E390E0A1
:101360002C8754D02C8522FF1CC021FF03C088E5A8
:1013700090E002C088E790E0B7010CC0822F867829
:1013800081F021FD02C080E201C08BE227FD8DE2E9
:10139000B70190E03BD005C0B70180E390E036D0C4
:1013A0005A94A514C8F3AA94F401EA0DF11DB701EB
:1013B000808190E02BD0A110F6CF05C0B70180E26C
:1013C00090E024D03A943110F9CF50CEF701268125
:1013D000378102C02FEF3FEFC9012C96E2E1F9CD32
:1013E000FC010590615070400110D8F780959095F0
:1013F0008E0F9F1F0895FC016150704001900110F5
:10140000D8F7809590958E0F9F1F08950F931F9387
:10141000CF93DF938C01EB018B8181FD03C00FEF34
:101420001FEF1AC082FF0DC02E813F818C819D81EC
:101430002817390764F4E881F9810193F983E88377
:1014400006C0E885F985802F0995892B41F78E81A3
:101450009F8101969F838E83C801DF91CF911F9159
:101460000F910895FA01AA27283051F1203181F116
:10147000E8946F936E7F6E5F7F4F8F4F9F4FAF4F9C
:10148000B1E03ED0B4E03CD0670F781F891F9A1FAF
:10149000A11D680F791F8A1F911DA11D6A0F711D63
:1014A000811D911DA11D20D009F468943F912AE06F
:1014B000269F11243019305D3193DEF6CF01089557
:1014C000462F4770405D4193B3E00FD0C9F7F6CF88
:1014D000462F4F70405D4A3318F0495D31FD405250
:1014E000419302D0A9F7EACFB4E0A69597958795E6
:1014F00077956795BA95C9F70097610571050895C5
:101500009B01AC010A2E0694579547953795279570
:10151000BA95C9F7620F731F841F951FA01D089508
:04152000F894FFCF6D
:101524007E306D79335B5F707F7B010000000000CB
:1015340000000050726F6772616D2050544D20326C
:10154400303230003234383933312C2032343839A7
:10155400323600204C69637A6261203A20256400A7
:1015640053746F706572203A2025642E2564300010
:101574005A65676172203A2025642E2564004F6401
:10158400637A79743A202564004E617069656369F1
:10159400653A2025642E256456005779737769656A
:1015A400746C20496E666F00577973776965746C43
:1015B400204C69637A62790053746F706572005AC3
:0E15C40065676172004D6965726E696B0000AB
:00000001FF
