:100000000C942A000C943F000C943F000C943F0089
:100010000C943F000C943F000C943F000C943F0064
:100020000C943F000C943F000C943F000C943F0054
:100030000C943F000C943F000C943F000C943F0044
:100040000C943F000C943F000C943F000C943F0034
:100050000C943F0011241FBECFE5D8E0DEBFCDBF1A
:1000600010E0A0E6B0E0EEE9FFE002C005900D92DE
:10007000AC37B107D9F70E9480040C94CD070C94DB
:100080000000A0E2B0E0E7E4F0E00C94F3046D8F30
:100090007E8F8F8F98A3298F3A8F4B8F5C8FBE01F5
:1000A0006F5E7F4FCE014D960E945803BE01675F81
:1000B0007F4FCE0149960E9458039989923008F4E7
:1000C00012C08985823008F41AC0943021F482303D
:1000D00009F4B4C008C0843021F4923009F4AEC0F1
:1000E0000EC0923051F481E02A899A85291301C00B
:1000F00080E08A8BCE014196A3C0823051F481E02A
:100100002A899A85291301C080E08A87CE01099641
:1001100097C08D889E88AF88B88C0D851E852F85E9
:100120003889E0E2F0E080E090E0DC01C12CD12CE5
:10013000760140E050E0BA0180FE18C0400F511F28
:10014000621F731F8C0D9D1DAE1DBF1D412C512CB8
:1001500032014394401751076207730718F0412C8E
:10016000512C3201840D951DA61DB71DCC0CDD1C34
:10017000EE1CFF1C37FF02C06894C0F8000F111F6F
:10018000221F331FB694A794979487943197A1F6B2
:100190002B893C89EB85FC852E0F3F1F2E5F3F4F3F
:1001A0003C832B8321E0EA893A85E31301C020E0F8
:1001B0002A83EB81FC810CC080FF05C07695679592
:1001C000579547957068B695A795979587953196F9
:1001D000B7FDF2CF9F010CC0880F991FAA1FBB1F4C
:1001E00077FD8160440F551F661F771F215031092D
:1001F0000097A105E0E4BE0778F32B833C838C01D4
:100200009D010F771127222733270034110521057F
:10021000310559F487FD09C0452B462B472B29F0A2
:10022000805C9F4FAF4FBF4F80788D839E83AF839D
:10023000B88783E08983CE01019602C080E690E012
:100240000E948E02A096E0E10C940F05A8E1B0E0B8
:10025000ECE2F1E00C94FB046D8B7E8B8F8B988F1E
:10026000298B3A8B4B8B5C8BBE01675F7F4FCE0136
:1002700045960E945803BE016F5F7F4FCE014196A5
:100280000E9458039985923008F475C089818230A4
:1002900008F474C02A853A8123272A87943011F004
:1002A000923019F4981367C06CC0843039F41D86FD
:1002B0001E861F86188A1C861B8604C0823029F47D
:1002C00084E08987CE0109965EC08B859C852B8151
:1002D0003C81821B930B9C878B874D855E856F8548
:1002E0007889CD80DE80EF80F8844C155D056E0541
:1002F0007F0538F4440F551F661F771F01979C87B1
:100300008B87EFE1F0E000E010E020E030E480E0F7
:1003100090E0DC014C155D056E057F0540F0802BFB
:10032000912BA22BB32B4C195D096E097F093695D1
:10033000279517950795440F551F661F771F31970F
:1003400049F78C019D010F771127222733270034AD
:1003500011052105310559F487FD09C0452B462BB0
:10036000472B29F0805C9F4FAF4FBF4F80788D8720
:100370009E87AF87B88BCE01099605C0CE01019646
:1003800002C080E690E00E948E026896E8E00C943D
:100390001705ACE0B0E0EFECF1E00C94FF046987E6
:1003A0007A878B879C87BE016F5F7F4FCE0109964E
:1003B0000E9458038981823091F1823080F184302B
:1003C00041F48A81882331F100E010E020E030E838
:1003D00029C02B813C8137FD22C02F3131058CF79C
:1003E0008EE190E0821B930B0D811E812F81388559
:1003F00004C036952795179507958A95D2F78A8177
:10040000882381F030952095109501951F4F2F4F2F
:100410003F4F08C00FEF1FEF2FEF3FE703C000E093
:1004200010E09801B801C9012C96E4E00C941B057A
:10043000A8E0B0E0EEE1F2E00C94FB048B019C013B
:100440001A82611571058105910519F482E089838D
:100450005DC083E089834EE150E05C834B83C9013A
:10046000B8010E94D604019797FF39C0EE27FF27F5
:10047000E81BF90B41E050E060E070E00E2E04C094
:10048000440F551F661F771F0A94D2F74150510938
:10049000610971094023512362237323C12CD12C9C
:1004A0007601C394452B462B472B19F4C12CD12C34
:1004B000760104C03695279517950795EA95D2F7EA
:1004C0000C291D292E293F290D831E832F83388750
:1004D0002EE130E0281B390B3C832B8317C000979B
:1004E00029F40D831E832F83388710C0082E04C083
:1004F000000F111F221F331F0A94D2F70D831E8392
:100500002F833887481B590B5C834B83CE010196A0
:100510000E948E022896E8E00C9417050F931F9313
:10052000CF93DF93DC0114964D915D916D917C9199
:1005300017971196EC9111978C91823020F460619D
:100540008FEF90E0A6C0843009F49EC0823009F499
:1005500095C0411551056105710509F492C01296C7
:100560002D913C91139722388FEF38070CF058C02B
:10057000C2E8DFEFC21BD30BCA31D1056CF58A018B
:100580009B010C2E04C036952795179507950A9464
:10059000D2F781E090E0A0E0B0E00C2E04C0880F1C
:1005A000991FAA1FBB1F0A94D2F70197A109B1098D
:1005B00084239523A623B72341E050E060E070E058
:1005C000892B8A2B8B2B19F440E050E0BA01402B89
:1005D000512B622B732B03C040E050E0BA01DB01CA
:1005E000CA018F779927AA27BB2780349105A105D7
:1005F000B10539F447FF09C0405C5F4F6F4F7F4F33
:1006000004C0415C5F4F6F4F7F4F81E090E0411528
:100610005105610520E4720748F580E090E026C0AE
:10062000203831058CF5DB01CA018F779927AA277D
:10063000BB2780349105A105B10539F447FF09C0F6
:10064000405C5F4F6F4F7F4F04C0415C5F4F6F4F07
:100650007F4F77FD04C0C90181589F4F07C0769531
:10066000679557954795C90180589F4F97E07695B4
:100670006795579547959A95D1F70BC080E090E024
:1006800005C080E090E005C08FEF90E040E050E0D2
:10069000BA01982F9695E0FB97F9362F80FB37F932
:1006A000642F752F832FDF91CF911F910F910895A4
:1006B000CF92DF92EF92DC01FB01CC901196DC909F
:1006C000119712968C9112973FE7E32EE8226E2D38
:1006D000A60170E0982F991F9927991F13962C91C6
:1006E000822F880F892B90E027FB222720F9218376
:1006F000009729F5411551056105710511F482E056
:1007000027C082E89FEF9383828327E0440F551F21
:10071000661F771F2A95D1F783E0808309C0440FB5
:10072000551F661F771F8281938101979383828370
:1007300041155105610580E4780788F320C08F3F9B
:10074000910579F4411551056105710519F484E0AD
:10075000808319C0E4FE03C081E0808310C0108252
:100760000EC08F5791099383828383E0808387E053
:10077000440F551F661F771F8A95D1F77064448315
:10078000558366837783EF90DF90CF90089580FF45
:1007900002C0C29A01C0C29881FF02C0C39A01C0C0
:1007A000C39882FF02C0C49A01C0C49883FF02C0EC
:1007B000C59A0895C5980895CF93C82FC19A829578
:1007C0008F700E94C703C198C19A8C2F0E94C703E3
:1007D000C19885E88A95F1F70000CF910895C098F7
:1007E0000C94DC03C09A0C94DC03CF93DF93EC01F0
:1007F00002C00E94F20389918111FBCFDF91CF915A
:10080000089590E4699F800D112480680C94EF0393
:1008100081E00E94EF038FE99FE00197F1F700C0AC
:100820000000089582E00E94EF038FE99FE00197A6
:10083000F1F700C000000895CF93BA9ABB9ABC9A12
:10084000BD9AB99AB89A8FE295E70197F1F700C07F
:100850000000C098C198C3E0C19A83E00E94C7031A
:10086000C1988FE097E20197F1F700C00000C150F6
:1008700099F7C19A82E00E94C703C1988FEC97E074
:100880000197F1F700C0000088E20E94EF0388E0C2
:100890000E94EF0381E00E94EF038FE99FE0019740
:1008A000F1F700C0000086E00E94EF038CE0CF91DA
:1008B0000C94EF033E9A309A379A0895BC0180E079
:1008C00090E00E94180220E030E040EA50E40E94EC
:1008D000410020E030EC4FE754E40E94260120E084
:1008E00030E048EC52E40E9441000E94C901CB0173
:1008F0000895369A369BFECF24B135B1C9010895CB
:10090000CF93DF93CDB7DEB764970FB6F894DEBF11
:100910000FBECDBF0E941C040E9412040E945A0404
:10092000A39A88E6C82E80E0D82E8E010F5F1F4F55
:100930000E9479040E945E047C010E94080460E029
:1009400080E00E940104FF92EF92DF92CF921F930A
:100950000F930E942F05C8010E94F50361E080E01B
:100960000E9401040F900F900F900F900F900F9026
:100970002BEFE216F1043CF065E770E0C8010E943D
:100980002805AB9A06C068E770E0C8010E942805F8
:10099000AB98C8010E94F5038FEF99E628E18150DA
:1009A00090402040E1F700C00000C2CF0E94DF0469
:1009B00084FF0895CB010E94DF04805F0895AA2779
:1009C000992329F4A85F982B11F480E108959031C0
:1009D00018F4AD5F9295A395990FE8F78A2F9927A0
:1009E00008952F923F924F925F926F927F928F92D3
:1009F0009F92AF92BF92CF92DF92EF92FF920F93AE
:100A00001F93CF93DF93CDB7DEB7CA1BDB0B0FB6B7
:100A1000F894DEBF0FBECDBF09942A883988488874
:100A20005F846E847D848C849B84AA84B984C8840A
:100A3000DF80EE80FD800C811B81AA81B981CE0F01
:100A4000D11D0FB6F894DEBF0FBECDBFED010895E6
:100A5000FB01DC0101900D920020E1F70895AEE06A
:100A6000B0E0E5E3F5E00C94FF040D891E8986E013
:100A70008C831A8309838FEF9FE79E838D83CE013A
:100A80004996AC016F89788DCE0101960E9451057F
:100A9000EF81F885E00FF11F10822E96E4E00C94B0
:100AA0001B05ACE0B0E0E7E5F5E00C94F1047C0157
:100AB0006B018A01FC0117821682838181FFC6C106
:100AC00088248394912C8C0E9D1EF7019381F6014E
:100AD00093FD859193FF81916F01882309F4B2C141
:100AE000853239F493FD859193FF81916F018532B1
:100AF00029F4B70190E00E944307E7CF512C312C35
:100B000020E02032A8F48B3261F028F4803251F0DA
:100B1000833271F40BC08D3239F0803349F4216097
:100B200028C02260246025C0286023C0206121C025
:100B300027FD27C0382F30533A3078F426FF06C0FF
:100B4000FAE05F9E300D1124532E13C08AE0389EC8
:100B5000300D1124332E20620CC08E3221F426FD7C
:100B600071C1206406C08C3611F4206802C088363A
:100B700041F4F60193FD859193FF81916F018111FD
:100B8000C0CF982F9554933018F09052933028F49A
:100B90000C5F1F4FFFE3F9830DC0833631F08337BD
:100BA00071F0833509F05EC023C0F801808189832C
:100BB0000E5F1F4F44244394512C540115C038013B
:100BC000F2E06F0E711CF801A080B18026FF03C017
:100BD000652D70E002C06FEF7FEFC5012C870E948A
:100BE00038072C0183012C856FE7262E222218C09E
:100BF0003801F2E06F0E711CF801A080B18026FF71
:100C000003C0652D70E002C06FEF7FEFC5012C8738
:100C10000E942D072C012C8550E8252E222A8301C5
:100C200023FC1CC006C0B70180E290E00E9443078D
:100C30003A94832D90E048165906A8F30FC0F501A9
:100C400027FC859127FE81915F01B70190E00E940A
:100C5000430731103A94F1E04F1A510841145104FE
:100C600071F7EDC0843611F0893641F5F80127FFA0
:100C700007C060817181828193810C5F1F4F08C022
:100C800060817181882777FD8095982F0E5F1F4FB7
:100C90004FE6B42EB22297FF09C0909580957095CB
:100CA00061957F4F8F4F9F4FF0E8BF2A2AE030E0D9
:100CB000A4010E946F07A82EA81843C0853731F4FD
:100CC0003FEEB32EB2222AE030E024C099EFB92ED5
:100CD000B2228F36B9F020F4883509F0B3C00DC0C8
:100CE000803721F0883709F0ADC002C020E1B22A78
:100CF000B4FE0BC084E0B82A08C024FF09C0E6E0B7
:100D0000BE2A06C028E030E005C020E130E002C085
:100D100020E132E0F801B7FE07C060817181828175
:100D200093810C5F1F4F06C06081718180E090E06D
:100D30000E5F1F4FA4010E946F07A82EA818FFE79F
:100D4000BF22B6FE0BC02B2D2E7FA51450F4B4FE8F
:100D50000AC0B2FC08C02B2D2E7E05C07A2C2B2D8C
:100D600003C07A2C01C0752C24FF0DC0FE01EA0DD2
:100D7000F11D8081803311F4297E09C022FF06C055
:100D80007394739404C0822F867809F0739423FDC2
:100D900014C020FF0FC05A2C731460F4530C571862
:100DA000732C08C0B70180E290E02C870E944307B3
:100DB00073942C857314B0F304C0731410F43718B3
:100DC00001C0312C24FF12C0B70180E390E02C87D2
:100DD0000E9443072C8522FF1EC021FF03C088E527
:100DE00090E002C088E790E0B7010CC0822F8678BF
:100DF00091F021FD02C080E201C08BE227FD8DE26F
:100E0000B70190E00E94430706C0B70180E390E07D
:100E10000E9443075A94A514C0F3AA94F401EA0D62
:100E2000F11DB701808190E00E944307A110F5CF2A
:100E300006C0B70180E290E00E9443073A94311067
:100E4000F8CF43CEF7012681378102C02FEF3FEF65
:100E5000C9012C96E2E10C940D05FC01059061504E
:100E600070400110D8F7809590958E0F9F1F0895C0
:100E7000FC016150704001900110D8F78095909569
:100E80008E0F9F1F08950F931F93CF93DF938C01B5
:100E9000EB018B8181FD03C00FEF1FEF1AC082FFB2
:100EA0000DC02E813F818C819D812817390764F404
:100EB000E881F9810193F983E88306C0E885F98523
:100EC000802F0995892B41F78E819F8101969F8301
:100ED0008E83C801DF91CF911F910F910895FA0180
:100EE000AA27283051F1203181F1E8946F936E7F69
:100EF0006E5F7F4F8F4F9F4FAF4FB1E03ED0B4E05A
:100F00003CD0670F781F891F9A1FA11D680F791F9A
:100F10008A1F911DA11D6A0F711D811D911DA11DAB
:100F200020D009F468943F912AE0269F11243019BB
:100F3000305D3193DEF6CF010895462F4770405D56
:100F40004193B3E00FD0C9F7F6CF462F4F70405D05
:100F50004A3318F0495D31FD4052419302D0A9F760
:100F6000EACFB4E0A6959795879577956795BA955A
:100F7000C9F700976105710508959B01AC010A2E20
:100F800006945795479537952795BA95C9F7620FF7
:0E0F9000731F841F951FA01D0895F894FFCFB6
:100F9E0000000000000000004E6170696563696525
:0C0FAE003A202564004F6E004F6666007C
:00000001FF
