:1000000029C000003AC0000038C0000036C000001F
:1000100034C0000032C0000030C000002EC000001C
:100020002CC000002AC0000028C0000026C000002C
:1000300024C0000022C0000020C000001EC000003C
:100040001CC000001AC0000018C0000016C000004C
:1000500014C0000011241FBECFE5D4E0DEBFCDBF29
:1000600010E0A0E6B0E0ECEDF8E002C005900D92E3
:10007000A637B107D9F7E3D02FC4C2CF80FF02C0A3
:10008000C29A01C0C29881FF02C0C39A01C0C3983E
:1000900082FF02C0C49A01C0C49883FF02C0C59AFF
:1000A0000895C5980895CF93C82FC19A82958F70EF
:1000B000E5DFC198C19A8C2FE1DFC19880E18A9574
:1000C000F1F700C0CF910895C098EDCFC09AEBCF63
:1000D000CF93DF93EC0101C0F9DF89918111FCCF4F
:1000E000DF91CF91089590E4699F800D112480687D
:1000F000EBCF81E0E9DF83EF91E00197F1F700C0FA
:100100000000089582E0E0DF83EF91E00197F1F7CE
:1001100000C000000895CF93BA9ABB9ABC9ABD9ACA
:10012000B99AB89A85EA9EE00197F1F700C00000FD
:10013000C098C198C3E0C19A83E0A0DFC19881EE66
:1001400094E00197F1F700C00000C150A1F7C19AF7
:1001500082E094DFC19889EF90E00197F1F700C049
:10016000000088E2B1DF88E0AFDF81E0ADDF83EF40
:1001700091E00197F1F700C0000086E0A5DF8CE078
:10018000CF91A2CF20E030E0E1E0F0E082B3B9010E
:100190006C5F7F4FAF0102C0440F551F6A95E2F7B5
:1001A000BA01842B82BB80E090E040B350E0082E7F
:1001B00002C0559547950A94E2F740FF20C061E0E0
:1001C00070E0082E02C0660F771F0A94E2F706C09F
:1001D000E3EDF0E33197F1F700C0000040B350E0E9
:1001E00046235723452BA1F7F901EE0FFF1FEE0F12
:1001F000FF1FE80FF91FE05AFF4F80810895019615
:100200008430910591F682B36095682362BB2F5FBD
:100210003F4F2330310509F0B9CF089506C083ED73
:1002200090E30197F1F700C00000ACDF282F30E029
:10023000205331092A30310590F7C9010895CF9331
:10024000DF93CDB7DEB765970FB6F894DEBF0FBE6C
:10025000CDBF61DF57DFA89A95DF282F3CE6832EBC
:1002600030E0932E8E010F5F1F4F43E7E42E40E0F6
:10027000F42E2D8B3EDF60E080E035DFDF92CF9201
:100280009F928F921F930F9364D0C80121DF61E08A
:1002900080E029DF77DF782E0F900F900F900F907E
:1002A0000F900F902D89233201F12A3209F03AC0C4
:1002B000B5DF5C01BF928F93FF92EF921F930F9374
:1002C00048D0C80105DF0F900F900F900F900F904E
:1002D0000F9006C083ED90E30197F1F700C0000096
:1002E0009899F8CFCA0CDB1C2AC098DF5C01BF923A
:1002F0008F93FF92EF921F930F932BD0C801E8DEEC
:100300000F900F900F900F900F900F9006C083EDFD
:1003100090E30197F1F700C000009899F8CFCA1850
:10032000DB080DC01F921F92FF92EF921F930F9355
:1003300010D00F900F900F900F900F900F90C8015A
:10034000C7DE8BE792E90197F1F700C00000272D87
:1003500090CFAEE0B0E0EEEAF1E095C20D891E89E3
:1003600086E08C831A8309838FEF9FE79E838D83BA
:10037000CE014996AC016F89788DCE01019608D0E7
:10038000EF81F885E00FF11F10822E96E4E097C20E
:10039000ACE0B0E0EDECF1E068C27C016B018A01F9
:1003A000FC0117821682838181FFB9C1882483945E
:1003B000912C8C0E9D1EF7019381F60193FD859182
:1003C00093FF81916F01882309F4A5C1853239F427
:1003D00093FD859193FF81916F01853221F4B701DF
:1003E00090E0B9D1E8CF512C312C20E02032A8F494
:1003F0008B3261F028F4803251F0833271F40BC0FB
:100400008D3239F0803349F4216028C022602460A5
:1004100025C0286023C0206121C027FD27C0382FB8
:1004200030533A3078F426FF06C0FAE05F9E300D74
:100430001124532E13C08AE0389E300D1124332E20
:1004400020620CC08E3221F426FD65C1206406C0F6
:100450008C3611F4206802C0883641F4F60193FD11
:10046000859193FF81916F018111C0CF982F955491
:10047000933018F09052933028F40C5F1F4FFFE335
:10048000F9830DC0833631F0833771F0833509F07D
:100490005AC022C0F801808189830E5F1F4F442417
:1004A0004394512C540114C03801F2E06F0E711CBA
:1004B000F801A080B18026FF03C0652D70E002C066
:1004C0006FEF7FEFC5012C873BD12C0183012C8579
:1004D0006FE7262E222217C03801F2E06F0E711C42
:1004E000F801A080B18026FF03C0652D70E002C036
:1004F0006FEF7FEFC5012C8718D12C012C8550E8B8
:10050000252E222A830123FC1AC005C0B70180E2F0
:1005100090E021D13A94832D90E048165906B0F32B
:100520000EC0F50127FC859127FE81915F01B7017F
:1005300090E011D131103A94F1E04F1A5108411472
:10054000510479F7E5C0843611F0893639F5F801A0
:1005500027FF07C060817181828193810C5F1F4FEB
:1005600008C060817181882777FD8095982F0E5F84
:100570001F4F4FE6B42EB22297FF09C09095809589
:10058000709561957F4F8F4F9F4FF0E8BF2A2AE00B
:1005900030E0A4010CD1A82EA81842C0853731F450
:1005A0003FEEB32EB2222AE030E024C099EFB92EFC
:1005B000B2228F36B9F020F4883509F0ACC00DC0F6
:1005C000803721F0883709F0A6C002C020E1B22AA6
:1005D000B4FE0BC084E0B82A08C024FF09C0E6E0DE
:1005E000BE2A06C028E030E005C020E130E002C0AD
:1005F00020E132E0F801B7FE07C06081718182819D
:1006000093810C5F1F4F06C06081718180E090E094
:100610000E5F1F4FA401CBD0A82EA818FFE7BF2262
:10062000B6FE0BC02B2D2E7FA51450F4B4FE0AC0CD
:10063000B2FC08C02B2D2E7E05C07A2C2B2D03C0BA
:100640007A2C01C0752C24FF0DC0FE01EA0DF11DAE
:100650008081803311F4297E09C022FF06C0739483
:10066000739404C0822F867809F0739423FD13C01D
:1006700020FF0EC05A2C731458F4530C5718732CC7
:1006800007C0B70180E290E02C8765D073942C8579
:100690007314B8F304C0731410F4371801C0312C6C
:1006A00024FF11C0B70180E390E02C8754D02C8543
:1006B00022FF1CC021FF03C088E590E002C088E74C
:1006C00090E0B7010CC0822F867881F021FD02C036
:1006D00080E201C08BE227FD8DE2B70190E03BD0C4
:1006E00005C0B70180E390E036D05A94A514C8F352
:1006F000AA94F401EA0DF11DB701808190E02BD09E
:10070000A110F6CF05C0B70180E290E024D03A9462
:100710003110F9CF50CEF7012681378102C02FEF7B
:100720003FEFC9012C96E2E1BCC0FC01059061508D
:1007300070400110D8F7809590958E0F9F1F0895F7
:10074000FC016150704001900110D8F780959095A0
:100750008E0F9F1F08950F931F93CF93DF938C01EC
:10076000EB018B8181FD03C00FEF1FEF1AC082FFE9
:100770000DC02E813F818C819D812817390764F43B
:10078000E881F9810193F983E88306C0E885F9855A
:10079000802F0995892B41F78E819F8101969F8338
:1007A0008E83C801DF91CF911F910F910895FA01B7
:1007B000AA27283051F1203181F1E8946F936E7FA0
:1007C0006E5F7F4F8F4F9F4FAF4FB1E03ED0B4E091
:1007D0003CD0670F781F891F9A1FA11D680F791FD2
:1007E0008A1F911DA11D6A0F711D811D911DA11DE3
:1007F00020D009F468943F912AE0269F11243019F3
:10080000305D3193DEF6CF010895462F4770405D8D
:100810004193B3E00FD0C9F7F6CF462F4F70405D3C
:100820004A3318F0495D31FD4052419302D0A9F797
:10083000EACFB4E0A6959795879577956795BA9591
:10084000C9F700976105710508959B01AC010A2E57
:1008500006945795479537952795BA95C9F7620F2E
:10086000731F841F951FA01D08952F923F924F92D2
:100870005F926F927F928F929F92AF92BF92CF9230
:10088000DF92EF92FF920F931F93CF93DF93CDB739
:10089000DEB7CA1BDB0B0FB6F894DEBF0FBECDBFB1
:1008A00009942A88398848885F846E847D848C8482
:1008B0009B84AA84B984C884DF80EE80FD800C818B
:1008C0001B81AA81B981CE0FD11D0FB6F894DEBF6E
:0C08D0000FBECDBFED010895F894FFCFDE
:1008DC0033363923323538303134372A57796E690B
:0608EC006B3A20256400B8
:00000001FF
