:100000002FC0000048C0000046C0000044C00000EF
:1000100042C0000040C000003EC000003CC00000E4
:100020003AC0000038C0000036C0000034C00000F4
:1000300032C0000030C000002EC000002CC0000004
:100040002AC0000028C0000026C0000024C0000014
:1000500022C000006364696E6F70737578585B002E
:1000600011241FBECFE5D8E0DEBFCDBF10E0A0E673
:10007000B0E0E2E2F0E102C005900D92A038B107D5
:10008000D9F720E0A0E8B0E001C01D92A03CB20783
:10009000E1F732D1C4C7B4CF80FF02C0C29A01C019
:1000A000C29881FF02C0C39A01C0C39882FF02C0F8
:1000B000C49A01C0C49883FF02C0C59A0895C59828
:1000C0000895CF93C82FC19A82958F70E5DFC198AC
:1000D000C19A8C2FE1DFC19885E88A95F1F700007D
:1000E000CF910895C098EDCFC09AEBCFCF93DF9317
:1000F000EC018991882311F0F7DFFBCFDF91CF91DD
:10010000089590E4699F800D11248068EBCF81E011
:10011000E9DF8FE99FE00197F1F700C00000089543
:1001200082E0E0DF8FE99FE00197F1F700C0000077
:100130000895CF93BA9ABB9ABC9ABD9AB99AB89AC5
:100140008FE295E70197F1F700C00000C098C198D1
:10015000C3E0C19A83E0A0DFC1988FE097E20197E6
:10016000F1F700C00000C150A1F7C19A82E094DF0E
:10017000C1988FEC97E00197F1F700C0000088E28A
:10018000B1DF88E0AFDF81E0ADDF8FE99FE001976D
:10019000F1F700C0000086E0A5DF8CE0CF91A2CF90
:1001A000E7E0F0E061E070E085B3AB010E2E01C046
:1001B000440F0A94EAF7842B85BB83E090E023B3D5
:1001C00030E0082E02C0359527950A94E2F720FF0B
:1001D00020C041E050E0082E02C0440F551F0A9491
:1001E000E2F723B330E024233523232B39F0AFE1AA
:1001F000BEE41197F1F700C00000F3CF3497EE0F83
:10020000FF1FEE0FFF1FE80FF91FE05AFF4F80811D
:1002100008950197A0F685B34095482345BB3197D3
:10022000E330F10509F0C0CF80E20895CF93DF936A
:10023000809183008F93809182008F9385E790E077
:100240009F938F9384E890E09F938F930ED180913A
:1002500081008F93809180008F938CE790E09F9333
:100260008F9382EA90E09F938F93FFD0E4E8F0E0D1
:1002700023E930E0C2EAD0E061EB70E08DB79EB7D1
:100280000C960FB6F8949EBF0FBE8DBF80E090E035
:10029000892B81F49081D9018C9198130BC051E086
:1002A00040E09881DB018C91981301C050E0852FCC
:1002B000942F02C081E090E04191D9014D939D01BE
:1002C0004991DB014D93BD01B0E0E339FB0701F734
:1002D000892B79F01CDF60E080E013DF83E990E098
:1002E00005DF61E080E00DDF81EB90E0DF91CF91F1
:1002F000FDCEDF91CF9108951CDF12DFC1E0D0E089
:1003000002E710E030E8E32E30E0F32E4CE7C42E95
:1003100040E0D42E50E2952E60E3862E5E0123E06D
:10032000A222BB24A114B10409F480DF39DF809339
:1003300071008C3248F48A3278F4803209F485C036
:10034000833209F482C060C08D3331F0833609F402
:100350004AC08D3209F058C090917000903229F453
:1003600020918000309181002BC09B3259F4209164
:100370008200309183004091800050918100240FD1
:10038000351F1EC09D3259F42091820030918300A8
:100390004091800050918100241B350B11C09A328E
:1003A00099F4609182007091830040918000509197
:1003B0008100649F9001659F300D749F300D112462
:1003C00030938300209382008092740080927300A7
:1003D00080927200809370008D33B9F51092810085
:1003E0001092800032C01092810010928000109212
:1003F0008300109282008092740080927300809239
:1004000072009092700021C0909170009D3331F481
:10041000109283001092820090927000909173006D
:100420009093720090917400909373008093740085
:10043000FF92EF92DF92CF921F930F9335D00F90E0
:100440000F900F900F900F900F908FE798E321E09F
:10045000815090402040E1F700C00000AB2819F423
:10046000C0E0D0E05BCF219659CFAEE0B0E0EAE348
:10047000F2E0ACC50D891E8986E08C831A8309835E
:100480008FEF9FE79E838D83AE01475E5F4F6F893D
:10049000788DCE0101961ED0EF81F885E00FF11F17
:1004A00010822E96E4E0AEC5AEE0B0E0E9E5F2E001
:1004B0008FC585E08C838B899C899A838983AE0163
:1004C000495E5F4F6D897E89CE01019635D32E96A8
:1004D000E2E09AC5ACE0B0E0EFE6F2E069C57C018D
:1004E0006B018A01FC0117821682838181FFB0C1F2
:1004F000CE0101964C01F7019381F60193FD8591A0
:1005000093FF81916F01882309F49EC1853239F4EC
:1005100093FD859193FF81916F01853221F4B7019D
:1005200090E09AD4E8CF512C312C20E02032A0F476
:100530008B3269F030F4803259F0833269F42061F3
:100540002CC08D3239F0803339F4216026C022600E
:10055000246023C0286021C027FD27C030ED380F5C
:100560003A3078F426FF06C0FAE05F9E300D112481
:10057000532E13C08AE0389E300D1124332E206292
:100580000CC08E3221F426FD5FC1206406C08C367B
:1005900011F4206802C0883641F4F60193FD85917C
:1005A00093FF81916F018111C1CF982F9F7D955449
:1005B000933028F40C5F1F4FFFE3F9830DC083369F
:1005C00031F0833771F0833509F057C021C0F8014D
:1005D000808189830E5F1F4F44244394512C540122
:1005E00014C03801F2E06F0E711CF801A080B180D8
:1005F00026FF03C0652D70E002C06FEF7FEFC501DD
:100600002C87E1D32C0183012C852F77222E16C055
:100610003801F2E06F0E711CF801A080B18026FF56
:1006200003C0652D70E002C06FEF7FEFC5012C871E
:10063000BFD32C012C852068222E830123FC19C0F6
:10064000832D90E048165906A0F4B70180E290E0AF
:1006500003D43A94F5CFF50127FC859127FE8191CB
:100660005F01B70190E0F8D331103A94F1E04F1AEE
:1006700051084114510479F7DEC0843611F08936EF
:1006800031F5F80127FF07C0608171818281938174
:100690000C5F1F4F08C060817181882777FD8095AE
:1006A000982F0E5F1F4F2F76B22E97FF09C090959F
:1006B0008095709561957F4F8F4F9F4F2068B22E28
:1006C0002AE030E0A40113D4A82EA81843C085372F
:1006D00029F42F7EB22E2AE030E025C0F22FF97FD8
:1006E000BF2E8F36C1F018F4883579F0ADC0803751
:1006F00019F0883721F0A8C02F2F2061B22EB4FE48
:100700000DC08B2D8460B82E09C024FF0AC09F2F16
:100710009660B92E06C028E030E005C020E130E048
:1007200002C020E132E0F801B7FE07C060817181AC
:10073000828193810C5F1F4F06C06081718180E0D0
:1007400090E00E5F1F4FA401D2D3A82EA818FB2D56
:10075000FF77BF2EB6FE0BC02B2D2E7FA51450F4B5
:10076000B4FE0AC0B2FC08C02B2D2E7E05C07A2C28
:100770002B2D03C07A2C01C0752C24FF0DC0FE0167
:10078000EA0DF11D8081803311F4297E09C022FF1A
:1007900006C07394739404C0822F867809F0739412
:1007A00023FD12C020FF06C05A2C731418F4530CFA
:1007B0005718732C731460F4B70180E290E02C8713
:1007C0004BD373942C85F6CF731410F4371801C0F3
:1007D000312C24FF11C0B70180E390E02C873CD37B
:1007E0002C8522FF16C021FF03C088E590E002C0DF
:1007F00088E790E0B7010CC0822F867851F021FD88
:1008000002C080E201C08BE227FD8DE2B70190E0DB
:1008100023D3A51430F4B70180E390E01DD35A949C
:10082000F8CFAA94F401EA0DF11D8081B70190E0A0
:1008300013D3A110F6CF332009F45DCEB70180E2C7
:1008400090E00AD33A94F7CFF7018681978102C0EE
:100850008FEF9FEF2C96E2E1C7C320FD09C0FC019A
:1008600023FD05C022FF02C073836283518340834E
:10087000089544FD10C046FD10C0DB01FC01AA0F25
:10088000BB1FEE1FFF1F1094D1F76A0F7B1F8E1F37
:100890009F1F31E003C033E001C034E0660F771FD3
:1008A000881F991F3150D1F7620F711D811D911D55
:1008B00008950F931F93CF93DF938C01C8018ED2BD
:1008C000EC0197FD06C061D2892BC1F7B801CE01BA
:1008D000F5D2CE01DF91CF911F910F9108958F92A4
:1008E0009F92AF92CF92DF92EF92FF920F931F935E
:1008F000CF93DF93EC01A62E4A01022F6FD2AC01F9
:1009000055274B32510521F04D32510549F400680D
:10091000AA9411F480E060C0CE0160D297FDFACFB6
:10092000102F1D7F302F3073F1F48033E1F4FF245A
:10093000FA94FA0C09F43DC0CE0150D297FD39C0AB
:10094000382F3F7D383549F41264AA94AA9489F16E
:10095000CE0144D297FF07C02CC006FF02C0126030
:1009600001C01261AF2CC12CD12C760120ED280FD3
:10097000283078F014FF03C0BE01A0D217C02A307F
:1009800040F016FFF9CF2F7D3FEE320F3630A0F743
:100990002750412FC701B6016CDF6B017C0112604B
:1009A000AA9451F0CE011AD297FFE0CF11FD04C0F6
:1009B000B1CFC12CD12C760117FF08C0F094E09480
:1009C000D094C094C11CD11CE11CF11C212FB70193
:1009D000A601C40142DF81E0DF91CF911F910F9109
:1009E000FF90EF90DF90CF90AF909F908F90089501
:1009F000A1E2B0E0EDEFF4E0E0C25C017A018E012B
:100A00000F5F1F4F680180E2D8011D928A95E9F7B8
:100A1000F501738040E050E0812CB0E0912C81E042
:100A200090E0F90173FCA59173FEA1918F017A2FDB
:100A30009F01A11103C080E090E07BC0AE3519F4A6
:100A40004115510559F1E92DF0E0E417F5073CF4A3
:100A5000AD3569F1AD3219F4BB2319F103C0B11101
:100A600001C08A2EE72FE695E695E69586010E0FE2
:100A7000111DF801A72FA7708C0102C0000F111FD4
:100A8000AA95E2F7D801B081BA2BB083781559F056
:100A9000781510F47F5FE6CF7150E4CF99249394DA
:100AA00003C0B1E001C0B0E04F5F5F4FBACFBB23DE
:100AB00019F08E8180628E83911003C099249394E3
:100AC00015C0F601CE018196208120952193E8176B
:100AD000F907D1F7F3CFE114F10429F0D7018C9392
:100AE000F70131967F016150F1F0912CC50169A3A6
:100AF00075D169A197FD15C0282F269526952695B5
:100B0000F601E20FF11D208130E0AC01477055275E
:100B100002C0359527954A95E2F720FDDCCFB50157
:100B2000CDD1911088CFE114F10411F0D7011C92BE
:100B3000C801A196EDE05DC24F925F927F928F92C5
:100B40009F92AF92BF92CF92DF92EF92FF920F935C
:100B50001F93CF93DF931F92CDB7DEB78C012B018C
:100B60007A01FC0117821682A12CF801D380F201D0
:100B7000D3FC8591D3FE8191382F2F01882309F46E
:100B8000EEC090E0398301D13981892B19F0C80179
:100B900090DEEBCF353241F4F201D3FC3591D3FE38
:100BA00031912F01353259F4C801398317D1398178
:100BB00097FDD3C03817C9F2B80180D1D0C03A32FE
:100BC00041F4D3FC3591D3FE31912F01BB24B39472
:100BD00001C0B12C712C20ED230F2A3088F4FB2D9D
:100BE000F260BF2E672D70E080E090E040E241DED1
:100BF000762EF201D3FC3591D3FE31912F01EBCF4C
:100C0000B1FE03C0711003C0AAC077247A943836AD
:100C100019F03C3661F014C0F201D3FC3591D3FEDB
:100C200031912F01383661F4FB2DF860BF2E8B2DEA
:100C30008460B82EF201D3FC3591D3FE31912F019F
:100C4000332309F48CC0632F70E084E590E039838E
:100C5000A4D03981892B09F482C0B0FC07C0F70108
:100C6000C080D180C70102967C0102C0C12CD12C6A
:100C70003E3649F4F8014681578160E070E02B2D43
:100C8000C601EBDD72CF333699F4B1FC02C0772494
:100C90007394C801A3D097FD60C0C114D10429F09A
:100CA000F6018083C60101966C017A9491F751C0D8
:100CB0003B3551F49201A601672DC80199DE2C0144
:100CC000009709F046C040C0C8013983F2DD398180
:100CD00097FD43C03F3651F128F4343619F13936C7
:100CE00061F128C0333769F03537E1F023C0C11412
:100CF000D10429F0F6018082C60101966C017A9434
:100D000059F0C8016BD04C0197FD06C03ED0892B2D
:100D100071F3B801C401D2D0C114D104D1F0F601ED
:100D2000108217C0FB2DF062BF2E07C08B2D806193
:100D3000B82E03C09B2D9064B92E2B2DA601672DD4
:100D4000C801CDDD811105C0F8018381807329F4CC
:100D500006C0B0FC0ACFA39408CFAA2019F08A2DB0
:100D600090E002C08FEF9FEF0F90DF91CF911F9126
:100D70000F91FF90EF90DF90CF90BF90AF909F903A
:100D80008F907F905F904F90089591110EC18032A7
:100D900019F089508550D0F70895FC01059006168A
:100DA00021F00020D9F7C00108953197CF010895AF
:100DB000FC010590615070400110D8F78095909526
:100DC0008E0F9F1F0895FC0161507040019001102B
:100DD000D8F7809590958E0F9F1F0895CF93DF933E
:100DE000EC012B8120FF33C026FF0AC02F7B2B8311
:100DF0008E819F8101969F838E838A8190E029C096
:100E000022FF0FC0E881F9818081992787FD9095A5
:100E1000009719F420622B831AC03196F983E88376
:100E20000EC0EA85FB85099597FF09C02B810196C5
:100E300011F480E101C080E2822B8B8308C02E81F7
:100E40003F812F5F3F4F3F832E83992702C08FEF53
:100E50009FEFDF91CF9108950F931F93CF93DF936F
:100E6000182F092FEB018B8181FD03C08FEF9FEFBE
:100E700020C082FF10C04E815F812C813D814217CE
:100E800053077CF4E881F9819F012F5F3F4F39833D
:100E90002883108306C0E885F985812F0995892B61
:100EA00029F72E813F812F5F3F4F3F832E83812F74
:100EB000902FDF91CF911F910F910895FB01238116
:100EC00020FF12C026FD10C08F3F3FEF930761F057
:100ED00082832F7D2064238326813781215031092D
:100EE00037832683992708958FEF9FEF0895FA019E
:100EF000AA27283051F1203181F1E8946F936E7F59
:100F00006E5F7F4F8F4F9F4FAF4FB1E03ED0B4E049
:100F10003CD0670F781F891F9A1FA11D680F791F8A
:100F20008A1F911DA11D6A0F711D811D911DA11D9B
:100F300020D009F468943F912AE0269F11243019AB
:100F4000305D3193DEF6CF010895462F4770405D46
:100F50004193B3E00FD0C9F7F6CF462F4F70405DF5
:100F60004A3318F0495D31FD4052419302D0A9F750
:100F7000EACFB4E0A6959795879577956795BA954A
:100F8000C9F700976105710508959B01AC010A2E10
:100F900006945795479537952795BA95C9F7620FE7
:100FA000731F841F951FA01D0895992788270895F2
:100FB0002F923F924F925F926F927F928F929F9269
:100FC000AF92BF92CF92DF92EF92FF920F931F9357
:100FD000CF93DF93CDB7DEB7CA1BDB0B0FB6F89408
:100FE000DEBF0FBECDBF09942A88398848885F8448
:100FF0006E847D848C849B84AA84B984C884DF80B9
:10100000EE80FD800C811B81AA81B981CE0FD11D9C
:101010000FB6F894DEBF0FBECDBFED010895F89472
:02102000FFCF00
:101022002D2B633D39363323383532303734312A6C
:10103200202030303057796E696B3A2025640000E9
:00000001FF
