:1000000029C0000042C0000040C000003EC0000007
:100010003CC000003AC0000038C000006FC00000C3
:1000200034C0000032C0000030C000002EC000000C
:100030002CC000002AC0000028C0000026C000001C
:1000400024C0000022C0000020C000001EC000002C
:100050001CC0000011241FBECFE5D8E0DEBFCDBF1D
:1000600010E0A0E6B0E0E4E2F1E002C005900D92FD
:10007000AA36B107D9F720E0AAE6B0E001C01D9288
:10008000AA36B207E1F725D04BC0BACF8EB588604B
:100090008EBD8EB581608EBD8EB584608EBD82E4CE
:1000A0009FE09BBD8ABD89B7806189BF089580E0CC
:1000B00090E041E050E064B39A01082E01C0220FA5
:1000C0000A94EAF7622B64BB01968730910599F791
:1000D0000895DCDFECDFB89A789480E090916900B5
:1000E00095BB2FE936E891E0215030409040E1F790
:1000F00000C000008F5F8A3088F3EFCF1F920F920D
:100100000FB60F9211248F939F9388B391E08927A4
:1001100088BB9F918F910F900FBE0F901F901895E5
:04012000F894FFCF81
:0A0124007E306D79335B5F707F7BE6
:00000001FF
